:400000000010002011000000290500002905000080B500AF00F092FA80B500AF184B184A12688021C9020A431A60182001F04EFC134B134A126813490A401A60124B134AEB
:400040001A60134B20221A60124B10221A60124B30221A60114B802212061A60084B00221A600F4B0F4A1A600F4B104A1A60104B104A1A60104B00221A60C046BD4680BD74
:4000800000010B40FFFFFBFF04010B400600008014020240180202402002024008010B4000000240FE00008040000240FE0000C080000240010000800C020B4080B582B0B7
:4000C00000AF72B6FB1D00221A7022E0FB1D1A7813005B009B185B00434A9B183B603B681A78597809020A43997809040A43DB781B06134318003B681A795B791B0213433A
:400100009BB2190000F07EF9FB1D1A78FB1D01321A70FB1D1B78012BD8D9344A344B1100180000F07FF9334BC02292001A60324BEE2212021A60314B992212041A60304B94
:400140008A22D2031A602F4B992212041A602E4B992212041A602D4B992212041A602C4B802292051A602B4A2A4B1B78DBB23C218B43DBB214210B43DBB21370264A264BD8
:400180001B78DBB216210B43DBB21370234BCC221A60234BD82212011A60224BC0221A60214B87221A60214B87221A60204BFC221A60204BFC221A601F4B01221A601F4B61
:4001C000D82212011A601E4B01221A601D4B04221A601D4B04221A60FFF71EFF00F064F9C046BD4602B080BD242F00004C2F0000302F0000000001400C00014000500F40B0
:4002000008500F4010500F4020500F4030500F4038500F4001700F4000700F40000004400800044018000440000104401801044000020440180204400003044008030440BC
:4002400018030440000404401804044010B5064C2378002B07D1054B002B02D0044800E000BF0123237010BD8802002000000000202F0000084B10B5002B03D00749084857
:4002800000E000BF07480368002B00D110BD064B002BFBD09847F9E7000000008C020020202F0000C80000200000000090B583B000AF62B601F0ECF900237B6008E07B6853
:4002C000474A1100180000F061FB7B6801337B607B680C2BF3DD00F055FA01F047FA00F0CFFE00F037FB031E5FD100F0E9FF00F005FB00233B6053E03B68180001F0AAF874
:40030000030099B2374B3A685200D1523B68180000F0F8FF03001900334B3A685200D152304B3A685200D35A012B0ED12F4B304A1A60304B3A685200D35A002B10D12D4B4E
:400340003A6852000121D1520AE02A4B3A685200D35A012B04D1274B3A6852000021D152214B3A685200D35A18003A6813005B009B185B00204A9B180A22190002F081FD84
:400380003A6813005B009B185B001B4A9B18180001F0F2F92C2001F063FC3B6801333B603B680C2BA8DD01F015FA104B1B68104AD31A180001F09EF90C4B1B68180002F0FD
:4003C0007BFB0E4A0E4B01F073FD03000C001800210001F04FFD0200044B1A6081E7C0460000FF3FA8020020E0020020A4020020FFFF0000C40200207C0300201EA7E8486F
:400400002EFFEF3F80B582B000AF786039603A687B680021180002F041FDC046BD4602B080BDC04680B586B000AF7860396000233B6100237B612FE07B699B007A68D3184A
:400440001B68BB600F23FB18BA681A70BB68FF229343BB6018E03B695B003A68D3181B781A00BB68D31819003B695B003A68D3185B780B703B6901333B610F23FB181A783B
:400480000F23FB18013A1A700F23FB181B78002BE1D17B6901337B617B69062BCCD9C046BD4606B080BDC04680B500AF012000F003F8C046BD4680BD80B584B000AF02007D
:4004C000FB1D1A70154B1B68FB60FB1D1B78002B05D0FB68802212061343FB6003E0FB685B005B08FB600D4BFA681A600C4B1B68FB60FB1D1B78002B05D0FB688022920495
:400500001343FB6003E0FB68064A1340FB60044BFA681A60C046BD4604B080BD80031A4008010B40FFFFFFFD80B500AF02F066FC03001B680C2B00D1FEE7FEE780B586B07B
:4005400000AF224B7B61224B3B61204B7B6135E03B691B68FB603B695B68BB603B699B683B6000237B600CE0FB681A68BB681A60BB680433BB60FB680433FB607B680433E8
:400580007B607A683B689A42EED13B69DB683B6000237B6008E0BB6800221A60BB680433BB607B6804337B607A683B689A42F2D13B6910333B617B69013B7B617B69002BFD
:4005C000C6D102F021FCFFF771FEFEE701000000F830000080B582B000AF00237B600FE07B68032B04D8104B7A689200D35800E00E4B0F4A796889008B507B6801337B602F
:400600007B682F2BECD9FFF759FD0A4B00221A608023DB058022D205126801210A431A60C046BD4602B080BD000000002905000000000020C000002080B582B000AF0023BD
:400640007B6007E07B680021180000F0A3FC7B6801337B607B680C2BF4D900F009F8002000F0B0FB00F0A2F9C046BD4602B080BD80B582B000AF254B1B68DAB2244B1A7077
:40068000234B1B787B607B680F2293437B60214B1B78DBB21A000F2313407A6813437B607B68F02293437B601A4B1B78DBB21A00F02313407A6813437B60144B7A681A60E2
:4006C000154B164A1A60164B164A1A60164B1B687B607B68154A13407B607B68C022D20013437B60104B7A681A600F2001F074FA0F4B19000F2001F0DFF903210F2001F09A
:4007000001FAC046BD4602B080BDC04600FF0840CC03002062F1FF0F0800084000020001040008400008A00110000140FFF0FFFF2515000080B582B000AF01F09DF801F0DC
:4007400063F80021002001F06DF80021002001F0A1F801F083F801F049F8084B1B687B607B68074A13437B60044B7A681A600F2001F01CFAC046BD4602B080BD04000840E3
:400780000010088080B584B000AF344B1B78002B04D1FFF751FF314B01221A70FFF7CAFF2F4B2F4A12682F490A401A600023FB601FE02D4AFB68D3181B78BB602B4BBA6818
:4007C0009200D3581B0C7B607A6813009B009B181A019B186421180001F0C0FA03007B60234A7968FB68180000F086FBFB680133FB60FB680C2BDCD90023FB6019E01C4AAB
:40080000FB68D3181B785B08D9B21A4AFB68D3180A1C1A70164AFB68D3181B7801335B08D9B2134AFB68D3180A1C1A70FB680133FB60FB680C2BE2D9094B094A12688021C0
:4008400049040A431A600C4B0B4A12688021C9030A431A60C046BD4604B080BD1A03002008000840FFFFFFFCD02F00002401002004010020140100200400084080B584B037
:4008800000AF0200FB1D1A70FB1D1A78FB1D01321A70FB1D1B780D2B0CD0FB1D1A78094B1100180000F0A8FA0300FB60FB68002BEAD000E0C046FB1D1B781800BD4604B0E8
:4008C00080BDC046CC00002080B582B000AF7860084B00221A707B68DAB2074B1A70054B81221A707B68180000F068F9C046BD4602B080BDFD020020FE02002080B500AFAD
:40090000124B00221A70124BFF221A70104B1B78DBB21800FFF7B2FF03001A000C4B1A700B4B1B78DBB20C2B0DD8084B1B78DBB201221343DAB2054B1A70054B1B78DBB21A
:40094000180000F03BF9C046BD4680BDFD020020FE02002080B500AF044B1B78DBB21A00012313401800BD4680BDC046FD02002080B582B000AF7860034B7A685200D35AB8
:400980001800BD4602B080BD0003002080B582B000AF78603960044B7A6892003968D150C046BD4602B080BD2401002080B582B000AF00237B6006E07B68180000F070F874
:4009C0007B6801337B607B680C2BF5D9C046BD4602B080BD90B587B000AF78602C4A7B68D3181B787B612B4A7B68D3181B781322BA18191C0B1CDB185B181370254A7B68FB
:400A0000D3181A781223FB1892001A701123FC1801F09CF9030023701F4B7A699200D3581B68FB601223FB181B780F229A401300DA43FB681340FB601223FB181B78042261
:400A40009A401300FA681343FB60144B7A699200D358124A796989008A581268132179180978072088400100C9430A401A600A4B7A699200D358FA681A601123FB181B78A3
:400A8000180001F067F9C046BD4607B090BDC0467C2F0000C02F0000E02F0000F42F000090B589B000AF78603E4A7B68D3181B787B613D4A7B68D3181A781323FB18920062
:400AC0001A70394A7B68D3181B781222BA18191C0B1CDB185B1813700023FB61334A7B68D3181B78BB61324B7A699200D358304A796989008A5812681321791809780F20F1
:400B000088400100C9430A401A60BB69022B01D10023BB61BB69012B01D00623FB611123FC1801F013F903002370224B7A699200D3581B68FB601223FB181B7807229A4070
:400B40001300DA43FB681340FB601223FB181B78FA699A401300FA681343FB60154B7A699200D358FA681A601123FB181B78180001F0F0F8104B7A699200D3580E4A79691A
:400B800089008A5812680848796841180978080001218140C9430A401A60C046BD4609B090BDC0467C2F0000C02F0000D4030020E02F0000F42F00000830000090B587B0FE
:400BC00000AF78601323FB1855497A688A1812781A701323FB181A78524B9200D358FB60514A7B68D3181B789BB2013B9BB20021180000F017FE4D4A7B68D3181B789BB20A
:400C0000013B9BB20021180000F044FE0F2000F0E3FF474B1B687B617B69402213437B617B69802293437B610B23FB183F497A688A1812781A700A23FB183B497A688A1875
:400C400012781A700B23FB180B22BA180A217918127809784A431A700B23FB181A7813001B039B1A1B0418000A23FB181B781322BA1811782B4A89008A585343984203D2CA
:400C80007B69802213437B61294B7A691A600F2000F08CFF0F2000F09FFF264B1B687B617B69254A13407B61244A7B68D3181B781900234A7B68D3181B781B040B437A69EC
:400CC00013437B611B4B7A691A60194B1B687B617B691C4A13407B617B691B4A13437B610F2000F063FF7B681800FFF773FE0923FC1801F02BF8030023700D4B7A691A60C6
:400D0000002001F019F8114BFA681A600923FB181B78180001F01EF8C046BD4607B090BDD02F0000240100206801002058010020040008400800084000FF80FF04010020D6
:400D400014010020FF1FDFFF200020000C00084080B584B000AF7860144B1B6899B2144B7A685200D1527B681800FFF799FE0F2000F032FF0F4B1B68FB60FB680E4A1340BD
:400D8000FB60FB68A02212021343FB60094BFA681A600A4B094A126809490A401A600F2000F004FFC046BD4604B080BD0C0008400003002004000840FF1FDFFF080008405B
:400DC00000FF80FF80B584B000AF78607B68032213407B60074B1B68FB607B685B02FA681343FB60034BFA681A60C046BD4604B080BDC0460400084080B584B000AF786066
:400E000039603B68DB08FB603B680722134001229A400B23FB181A707A68FB68D3181B780B22BA1812781340DBB2002B01D0012300E000231800BD4604B080BD80B586B08B
:400E400000AFF860B9607A60BB68DB087B61BB680722134001229A401323FB181A707B68002B0DD0FA687B69D318F9687A698A1811781322BA1812780A43D2B21A700EE0C2
:400E8000FA687B69D318F9687A698A181278132179180978C943C9B20A40D2B21A70C046BD4606B080BDC04680B584B000AF78600023BB600023FB6015E07B681800FFF7D8
:400EC00003FDC046FFF746FD0300012BFAD07B681800FFF74DFD03001A00BB689B18BB60FB680133FB60FB68002BE6D0BB689BB21800BD4604B080BD90B587B000AFF8603C
:400F0000B9607A601423FB1800221A801723FB1880221A707A68FB68D31800221A707A68FB68D3187968FA688A1811781722BA1812780A43D2B21A701423FC18FB6818000F
:400F4000FFF7B2FF030023801423FB181A88BB689A420ED27A68FB68D3187968FA688A181278172179180978C943C9B20A40D2B21A701723FB181722BA18127852081A70CB
:400F80001723FB181B78002BC9D1C046BD4607B090BDC04680B582B000AF786039603B68D9B2044A7B68D3180A1C1A70C046BD4602B080BDD403002080B584B000AF786019
:400FC0000F23FB181A497A688A1812781A70194B7A685200D15A184B7A685200D152174A7B68D31800221A70154B7A6852000021D1520F23FB181B780F22BA1812781149C2
:40100000895C114AD1540B4B7A685200D15A0F4B7A685200D152074B7A685200D15A0C4B7A685200D152C046BD4604B080BDC046D02F0000000300201C03002038030020CA
:4010400048030020F801002068030020E40300201004002080B582B000AF78607B681800FFF732FCC046FFF775FC031EFBD17B681800FFF7A1FFC046BD4602B080BDC04630
:4010800080B582B000AF00237B6006E07B681800FFF7E0FF7B6801337B607B680C2BF5D9C046BD4602B080BD90B587B000AF78600F23FB1870497A688A1812781A700F23C9
:4010C000FB1819780C23FB186C4A49008A5A1A801023FB186A4A796849008A5A1A80694B1B78002B26D01223FB181022BA1812881A80654B7A685200D15A644B7A68520011
:40110000D25A1023FC181023FB181B88180000F0CDF9030023805C4B7A685200D15A5B4B7A685200D152584B7A685200122179180988D152564B7A685200D35A1022BA1887
:4011400012889A4212D3534A7B68D31800221A704F4B7A685200D25A1223FB181021791809888A1A1A8001237B610CE0484B7A685200D15A1223FB181022BA1812888A1AC2
:401180001A8000237B617B69002B2AD10F23FB181A78414B5200D35A1222BA1812889A421FD93C4A7B68D3181A783C497B68CB181B789A4209D37B681800FFF7FDFE354A4F
:4011C0007B68D31800221A703AE0324A7B68D3181B780133D9B22F4A7B68D3180A1C1A702EE02B4B7A685200D35A1B02BB602C4A7B68D3181B781A00BB681343BB601023F3
:40120000FB181B88BA68D318BB60214B7A685200D35A1A00BB689B1ABB60BB681B0A99B21B4B7A685200D152BB68D9B21C4A7B68D3180A1C1A70174A7B68D31800221A7039
:401240001223FA180C23FB1812881B889A420AD97B69002B07D0134B7A685200122179180988D15204E00F4B7A6852000021D152C046BD4607B090BDD02F0000A401002072
:401280000003002085010020E4030020100400201C03002000040020C001002078010020380300204803002080B582B000AF78607B681800FFF7F8FEC046BD4602B080BDBA
:4012C00080B582B000AF00237B6011E07A680C4B11001800FFF790FD03003B603B68002B03D07B681800FFF7DFFF7B6801337B607B680C2BEAD9C046BD4602B080BDC04629
:40130000CC00002080B582B000AF7860034B7A685200D35A1800BD4602B080BD4803002080B584B000AF78600F23FB1842497A688A1812781A700F23FB1819780C23FB183F
:401340003E4A49008A5A1A800F23FB1819780A23FB183B4A49008A5A1A800F23FB181A780923FB1837498A5C1A700823FB180F22BA1812781A707A68334B11001800FFF7E2
:401380003BFD031E1CD0314B7A685200D35A19000C23FB181A880A23FB181B88D31A99423BDA7968284B00221800FFF747FD0823FB181B78264A092179180978D1542CE0D8
:4013C000224B7A685200D35A19000C23FB181A880A23FB181B88D318994216DB0823FB181B781B4AD25C013AD1B2194AD1540823FB181B78164AD35C002B0ED17968124B36
:4014000001221800FFF71AFD07E00823FB181B780F4A092179180978D1547A680A4B11001800FFF7E9FC031E01D0012300E000231800BD4604B080BDD02F000088010020EA
:40144000DC010020F801002064030020480300206803002080B586B000AF7860114A7B68D3181B787B61104A7B68D3181B781A007B69D318FB6000233B617B691800FFF79F
:401480004FFF031E01D001233B617B6901337B617A69FB689A42F0D33B691800BD4606B080BDC0461C3000002C30000090B585B000AF040008001100BB1D221C1A803B1DA5
:4014C000021C1A80BB1C0A1C1A80BA1D3B1D12881B889A420DD90E23FB183A1D12881A803B1DBA1D12881A80BB1D0E22BA1812881A803A1DBB1C12881B889A4203D93B1DB4
:40150000BA1C12881A803B1DBA1D10881B8899B282B2914200D2031C9BB21800BD4605B090BDC04680B500AF0F2000F055FB2D4B01221A602C4B1B78DBB21800FFF708FC73
:401540002A4B1B78DBB25BB2002B08DA274B1B78DBB201229343DAB2244B1A703CE0224B1B78DBB21800FFF789F903001A001E4B1A701D4B1B78DBB20C2B06D81A4B1B78CE
:40158000DBB21800FFF71AFB26E0184B1B78DBB201229343DAB2154B1A70144B1B78DBB21A004023134017D0114B00221A700FE00F4B1B781A000E4B1B7819000D4B595C3D
:4015C0000D4B99540A4B1B780133DAB2084B1A70074B1B78012BEBD90F2000F0E7FAC046BD4680BD14000840FE020020FD02002076030020D0030020CC00002080B500AF0F
:40160000104B8022D2041A600E4B0E4A12681A60002000F04FF80B4B0A4A12681A600A4B0C221A60002000F093F8084B31221A60074B180000F04EF8012000F05BF8C04601
:40164000BD4680BD000105402401054028010540FFFF000090B583B000AFFC1D00F076FB03002370094B094A126801210A431A60FB1D1B78180000F06DFB1821012000F068
:4016800049F8C046BD4603B090BDC0460000054080B500AF064B1B78002B04D1FFF7AEFF034B01221A70FFF7D5FFC046BD4680BD7703002080B582B000AF7860044B7A6866
:4016C0001204120C1A60C046BD4602B080BDC0460801054080B582B000AF7860044B7A681204120C1A60C046BD4602B080BDC0461401054080B582B000AF7860044B7A68AC
:401700001204120C1A60C046BD4602B080BDC0460C01054090B585B000AF786039600F23FC1800F013FB03002370084B79683A6891400A001A600F23FB181B78180000F02C
:4017400009FBC046BD4605B090BDC0460800054080B582B000AF7860034B7A681A60C046BD4602B080BDC0463801054080B500AFC046BD4680BDC04680B584B000AF7860D3
:401780000F23FB1801221A700E23FB187A6812781A7015E00E23FB181B78180000F060FA0F23FB181B787A68D2180E23FB1812781A700F23FB181A780F23FB1801321A70FA
:4017C0000E23FB181B78002BE4D1C046BD4604B080BDC04680B500AF0D2000F041FA0A2000F03EFAC046BD4680BDC04680B500AF044B044A1268802109060A431A60C046E0
:40180000BD4680BD0000024080B500AF044B044A1268520052081A60C046BD4680BDC0460000024080B584B000AF0200BB1D1A807B1D0A1C1A70084B1B681B0C1B04FB602C
:40184000BB1D1A88FB681343BB60034BBA681A60C046BD4604B080BD0000024080B500AF044B044A1268802109060A431A60C046BD4680BD4000024080B500AF044B044A39
:401880001268520052081A60C046BD4680BDC0464000024080B584B000AF0200BB1D1A807B1D0A1C1A70084B1B681B0C1B04FB60BB1D1A88FB681343BB60034BBA681A6037
:4018C000C046BD4604B080BD4000024090B585B000AF78600C23FC1800F038FA030023707B68022B00D8B3E07B68302B00D9AFE05E4B1B78DBB21A007B689A420AD35C4A2A
:401900000F23FB1812781A705A4A0E23FB1812781A703FE0584B1B78DBB21A007B689A420AD3564A0F23FB1812781A70544A0E23FB1812781A702DE0524B1B78DBB21A00E7
:401940007B689A420AD3504A0F23FB1812781A704E4A0E23FB1812781A701BE04C4B1B78DBB21A007B689A420AD34A4A0F23FB1812781A70484A0E23FB1812781A7009E0C0
:40198000464A0F23FB1812781A70454A0E23FB1812781A707B68DA1E0B23FB1841498A5C1A700B23FB181B782F2B0DD97B682A2B0AD93D4B19221A60052000F0BDF90D23DA
:4019C000FB1819221A7007E0374B1B68DAB20D23FB183F210A401A700B23FA180D23FB1812781B789A4208D22F4B7A68033A2D498A5C1A60052000F09FF97B68284A9A18A7
:401A00000A23FB1812781A70284B0A22BA1812781A60274B0F22BA1812781A60254B0E22BA1812781A60052000F0F8F80B23FA180D23FB1812781B789A420CD91A4B7A6841
:401A4000033A18498A5C1A60052000F075F902E0002000F0D7F80C23FB181B78180000F079F9C046BD4605B090BDC046C0F1FF0FC1F1FF0FC2F1FF0FC3F1FF0FC4F1FF0FFF
:401A8000C5F1FF0FC6F1FF0FC7F1FF0FC8F1FF0FC9F1FF0FCAF1FF0FCBF1FF0FCCF1FF0FCDF1FF0F3C3000002CFF0B4028FF0B401CFF0B4020FF0B4080B584B000AF0200E0
:401AC0003960FB1D1A7080239B05FB60FB1D1B781F2B02D9002000F095F8FB1D1B7810339B00FA68D3181B68BB60FB1D1B7810339B00FA68D3183A681A60BB681800BD46FC
:401B000004B080BD90B587B000AF0200FB1D1A70BB1D0A1C1A70BB1D1B78032B02D9002000F070F8FB1D1B781F2B02D9002000F069F8FB1D1B7803221340DB0006337B611D
:401B40001323FC1800F002F903002370FB1D1B789B08DBB29B00144A944663441B68FB6003227B699A401300DA43FB681340FB60BB1D1A787B699A401300FA681343FB60F5
:401B8000FB1D1B789B08DBB29B00074A94466344FA681A601323FB181B78180000F0DAF8C046BD4607B090BD00E400E080B582B000AF0200FB1D1A70064BFA1D12781F218E
:401BC0000A40012191400A001A60C046BD4602B080BDC04600E100E080B582B000AF0200FB1D1A70064BFA1D12781F210A40012191400A001A60C046BD4602B080BDC046BA
:401C000080E100E080B582B000AF0200FB1D1A7001BEC046BD4602B080BDC04680B582B000AF0200BB1D1A80BB1D1B88044A12785343180000F080F8C046BD4602B080BD01
:401C40001802002000000000000000000000000000000000000000000000000000000000FEB5494652465B460EB407462E4909688A462E4A12682E48022100F06FF8030003
:401C80002A480068C0182A4900F068F806001F3EB346234A126801219140C9430C000125002600F053F8814651460B6823400B605846043000F040F83800F04028409040A1
:401CC0000B68234003430B60584600F035F80136072EF1D900200130012090400B68234003430B605846063000F026F8484600F031F8C046C046C0460EBC894692469B46B6
:401D0000FEBDC046C046C046C046C046C046C046C046C046C046C046C046C046C046C04608020020780300200C0200201002002000E10000000000000230800804D0C046F4
:401D40000138FDD1C046C046C0467047EFF3108072B6704780F310887047C046002243088B4274D303098B425FD3030A8B4244D3030B8B4228D3030C8B420DD3FF2209023F
:401D800012BA030C8B4202D31212090265D0030B8B4219D300E0090AC30B8B4201D3CB03C01A5241830B8B4201D38B03C01A5241430B8B4201D34B03C01A5241030B8B422F
:401DC00001D30B03C01A5241C30A8B4201D3CB02C01A5241830A8B4201D38B02C01A5241430A8B4201D34B02C01A5241030A8B4201D30B02C01A5241CDD2C3098B4201D3E8
:401E0000CB01C01A524183098B4201D38B01C01A524143098B4201D34B01C01A524103098B4201D30B01C01A5241C3088B4201D3CB00C01A524183088B4201D38B00C01A42
:401E4000524143088B4201D34B00C01A5241411A00D20146524110467047FFE701B5002000F006F802BDC0460029F7D076E770477047C04670B500220C4B04000D0000F048
:401E800087FE002804D12000290000F0DFFD70BD064B00222000290000F084FA00F0D6FD80231B069C466044F1E7C0460000E041F0B55F4656464D464446F0B40D03994692
:401EC0004E002B0B87B00700924680469B46760DCC0F002E69D06D4B9E4235D05B468022DD001204430F13432B439B46C3009846674B00279C460023664401934A461503AD
:401F00005000D20F53462D0B400D914600D176E05E4A90426CD080225B0F120413435C4AED0094461D4353460022DB00604449463618701C6140029017430F2F00D9AFE083
:401F40005448BF00C759BF465B461F4300D088E000239B469846023308270193CEE74946022A6AD0032A00D109E2012A00D0BBE111400022002300259046CCB200212D0342
:401F80000A0D12052D0B1543434A1B0515401D436D00E4076D0825434046290007B03CBC90469946A246AB46F0BD034352D05B46002B00D18AE1584600F0F4FD03000B3BFB
:401FC0001C2B00DD7BE11D22D31A3A0001005D46DA4008398D4013008F402B439B46B8462E4B00279C46002360444642019385E752462A432CD100250023022297E75246AB
:402000002A4321D0002D00D154E1280000F0CAFD03000B3B1C2B00DD46E11D21CB1A51460200D9405346083A954093400D431B4A944660444042002279E7012400220C407A
:40204000124B0025904699E70025002301226EE703226CE700239B4698460133042701934CE703230C27019348E700238025984600242D03054B81E75D464346019A6FE75D
:402080005D4643462100019A6AE7C046FF07000001FCFFFF6C300000FFFF0F80F30300004246120C91461A0C9446424617044A461B041B0C5A43604690464A46424310008D
:4020C000039262461C003F0C7A437C4342440192220C9246019A5244904506D98246802040028046C24450460390100C049048462404240C1204121905922A0C2D042D0C0F
:4021000068432C00824648467C4350438146200C8046574357444744BA4503D9802040028046C144380C3F04B84648442404240C01900498A044404404905846000C81461C
:4021400058460404200C8246070048465F434C464343604660436446834650464443380C8446E4186444A34203D980235B029C46E34448463F04230C3F0C2404E419574614
:4021800068436F4384464D46504655434243380C814662444A445B44944503D9802040028446654403983F04834604983F0C8446E344C345804140428246100484460198C1
:4021C000674484466744A344BC46A345A4419946D44464428742BF41D4458041E144A04699459B417F424042C8440743120CBA18A045A4415F423B0064422343D718434651
:402200007D19DB0D6D021D435B465A02059B1A43531E9A415B46DB0D1A4343465B021343EA0107D501225C0813402343EA07029E13436D08574AB218002A4BDD580709D091
:402240000F201840042805D0181D98429B415B42ED180300E80104D54F4A15408022D200B2184E48824200DDE7E60124DB08680718436D02530580462D0B5B0D0C407DE6A6
:40228000802259461203114208D0154206D115432D0398462D0B4C46414B6FE65D4615432D032D0B3E4B69E603005546283B9D400023BCE6504600F075FC2030A8E60300A8
:4022C000283B9F400023BB46984689E600F06AFC203073E60124A61A382E07DD00220C4000230025904649E6029EA3E71F2E20DC20222C001800921BF0409440934004437E
:40230000581E83411C43F540630709D00F232340042B05D023001C1D9C4292415242AD182B021FD5012400220C4001230025904624E61F202C004042821AD440202E1CD0D9
:402340004022961BB5402B43581E83410720234318400025002809D00F2200251A401C00042AD8D1230068076D022D0B0124DB08034398460C40002300E60025E3E78022B4
:402380000124120315432D0398462D0B0C40044BF4E5C046FF030000FFFFFFFEFE070000FF070000F0B557464E464546E0B40E001100F20F9246C500420F180337037400F7
:4023C000400A4E0F7F0A3043CF4E17435A00640D520DDB0FC900B24200D1E5E001267340A61AB446534500D1AFE0002E00DC0DE1002A3AD103000B4300D0E4E06B0709D073
:402400000F232B40042B05D02B1DAB42AD416D427F191D003B0200D488E0BB4B01349C4200D110E13A00B94B51461A4001235007ED08520264050543120B640D0B40002182
:40244000280012030D0D120B64052D0515436208AF4CDB072C401443640064081C4321001CBC90469946A246F0BDA74B9C42C5D080231B0418436346382B00DDFDE01F2BE7
:4024800000DD30E1624620239B1A02009A40664690460A009940F24046464B1E99413243114363460200DA40691A8D429B410D00BA1A5B42D71A3B0235D57A02530A984623
:4024C0004346002B00D1C4E0404600F06BFB0300083B1F2B00DDC5E020222900D21A4746D1409F400A009D403A439C4200DDC0E01C1B631C1F2B00DDE4E020211400280014
:40250000C91AD8408C408D400443DA40681E854117002543002471E7424663461A4300D14CE2674645466B0700D069E7012351467807ED08FA080B40054373498C4238D0B2
:4025400012036405120B640D79E7002E00DC9AE0002A47D06C4A944200D14FE78022120410436246382A00DC08E10143481E81410022C9B24919D219A942BF410D007F42AE
:40258000BF183A0200D442E15F4A0134944200D14EE101205D4A69083A4028400843D507054357089A4629E706000E4300D017E714E72900114300D1F9E1802109030A4342
:4025C0001203120B3BE701235B429846C4446346002B72D1691A8D429B413F1A5B42FF1A0D0068E702000A4300D107E7012252429046C4446246002A00D0E6E06918A942B9
:40260000B6413F187642F7190D00BAE7002E00D080E0621C5205520D012A00DCF9E06A1A91464D45B6413A1A7642921B9046120200D499E04D1BA9428941C71B49427A1A72
:4026400090469A463CE752460123002513400022F5E6280000F0A6FA20300300083B1F2B00DC39E72A002838824000259C4200DC3EE7264FE41A1740C0E60143481E814190
:402680000022C9B210E7002E00D0F1E0621C94465205520D012A00DCA0E01B4A944500D1C5E06918A94292413F185242D2194908D5070D4357086446A0E6134B9C4200D041
:4026C000D9E69BE611001F3CE1400C00202B00D180E04021CB1A9A4015436A1E95410027254300241FE763460200203BDA406346202B71D0402366469B1B98400143481E5A
:40270000814111430022CFE6FF070000FFFF7FFFFFFF0F80002C48D0CA4CA24200D1A2E07442A1468024240427434C46382C00DDDBE01F2C00DD44E14E462024A41B3E0089
:40274000A640A246B0464C462E00E640B4464646644626435446A5406C1EA54134002C434D46EF400D1B28E04A4643464D461A4300D0A5E6002300240025DEE61F2A5ADC7F
:4027800066462022921B060096409146B04662460E00D640424616434A4691404A1E9141020060463143C240E4E63C002C435AD0F443A146002C52D14D1BA9428941C71B64
:4027C00049427F1A14009A4675E69E4A944200D0C7E613E600227FE700208FE7002C00D0C8E03B002B4300D10FE103000B4300D104E66918A9429B413F185B42DF193B0289
:4028000000D41AE1904B0D001F406446F6E59A4689E63A002A43002C5CD1002A75D102000A4300D1CAE007000D009A46E6E564460022002581E662460600203AD640624697
:40284000B046202A00D1B7E040226646921B904001434246481E8141114300228AE6794CA24200D061E707000D0014009A46C5E5002C41D13C002C4378D0F443A146002C5D
:4028800020D0704CA24271D04C46382C00DDB2E01F2C00DDBCE02026341BA2463C005646B4404E46A0462C00F440A446444666463443A4465446A54064466E1EB541254367
:4028C0004C46E7406D188D4289413F184942CF19140056E6002A2FD102000A4300D184E007000D009A46574C88E53D436F1EBD41ECB200270D1B60E7524CA24236D07442B8
:4029000080263604A1463743BEE702000A4300D174E56A1A90464545B6413A1A7642921B9446120200D4F7E54D1BA9428941C71B49427F1A9A4661E502000A433AD0ED086F
:402940007C072C438025FA082D032A4208D0C7082F4205D145072C003A009A46C9080C43670FD200E5001743364C47E507000D00140043E53A002A4343D002000A4319D00B
:40298000ED087C072C438025FA082D032A4207D0C6082E4204D147073C003200C9080C43D700620FE50017439A46264C26E50022002544E5234C21E5002049E700230025C6
:4029C000BBE54C463E00203CE6404C46B446202C31D040244E46A61BB7403D436C1EA54164462C4300270D1BE7E6802200231203144C0025A1E53D436F1EBD410027EDB281
:402A000060E707000D000F4CF8E407000D00F5E44E463C00203EF440A0464C46202C0ED040244E46A41BA7403D436F1EBD4144460027254346E70027CFE70D0073E50027BB
:402A4000F2E7C046FF070000FFFF7FFF0B0330B5134D1A0B4B005B0DC90F0024AB4211DD104CA34210DC8024640322430E4CE41A1F2C0CDD0D48C31ADA4013005C420029A4
:402A800000D11C00200030BD094BCC18FAE7E040084CA44663449A4013000343EEE7C046FE0300001D0400003304000013040000FFFFFF7FEDFBFFFF70B5051E28D000F0EE
:402AC00071F8154B154A1B1AD21A1F2A16DD2C00134A0025D21A94405A052403240B520D002124030B0D240B1B0523430D4C1205234013435B002800590870BD0B212C0028
:402B0000081AC440954024035A05240B520DE7E700220024E4E7C0461E0400003304000013040000FFFF0F808446101C62468C46191C634600E0C0461FB500F0F5F8002897
:402B400001D40021C8421FBD10B500F049F84042013010BD10B500F0E7F8002801DB002010BD012010BDC04610B500F0DDF8002801DD002010BD012010BDC04610B500F064
:402B80006FF8002801DC002010BD012010BDC04610B500F065F8002801DA002010BD012010BDC0461C2101231B04984201D3000C10391B0A984201D3000A08391B09984233
:402BC00001D30009043902A2105C40187047C04604030202010101010000000000000000F0B55F4656464D464446F0B41F035C00DB0F9A46194B0E034D00C90F8046360BF7
:402C00006D0D8B4691463F0B640D9D4219D0134B9C421BD00123A54206D018003CBC90469946A246AB46F0BDBE42F6D1C845F4D1D34510D0002DF0D1304303005A1E93415B
:402C4000EBE7310001230143E7D1E0E73A430123002AE2D1DEE70023DFE7C046FF070000F0B55F46444656464D46F0B41F033C0B2C4F0E034D00A3465C008446360B6D0D7F
:402C8000C90F9046640DDB0FBD422BD0254FBC422ED0002D0ED130430700814678427841002C17D15F463A4314D14B460020002B0AD006E0002C02D15846024301D099429C
:402CC0001AD00123484218433CBC90469946A246AB46F0BD0028F2D058425841012240421043F1E737000743D0D002204042EBE75F461743CDD0F8E7A542E2DC05DB5E4587
:402D0000DFD808D000205E45DED248424841012340421843D8E7C445D3D80020C445F4D3D2E7C046FF070000F0B55F464D4644465646F0B41C03240BA4462F4C0F034D009C
:402D40005E00C90F80463F0B6D0D8B469146760DDB0FA54220D0284CA64222D0002D12D1384344424441002E20D0002C0DD05C42634101245B421C4320003CBC904699466C
:402D8000A246AB46F0BD002E17D05B4519D05B465C4201231C43EFE7390002240143EBD1D9E7614602241143E6D1D7E761460A43DBD100240028DFD0E9E761460A43E4D18E
:402DC000E5E7B54203DD01225C421443D4E7B542CDDB6745DBD809D000246745CCD259464C426141012449420C43C5E7C845CED80024C845F3D3BFE7FF070000014B18687C
:402E00007047C046840200200E4B70B500251E000D4CE41AA410A54204D0AB00F35898470135F8E700F056F9084B00251E00084CE41AA410A54204D0AB00F358984701351D
:402E4000F8E770BDE0300000E0300000E0300000E8300000931E10B50C00222B02D9002008700DE00A2A06D1002804DA2D2340420B70012100E00021611800F017F82000B6
:402E800010BD10B5FFF7E6FF10BD002310B59A4203D0CC5CC4540133F9E710BD03008218934202D019700133FAE77047F0B58FB0170006000C002522184904A8FFF7E5FF4C
:402EC0000020BB1E0500222B01D9207023E06B1C0293E31801933000013B39000393FEF7C3FF04AB5B5C039A300013703900FEF735FF061E01D0029DE9E7019B18702300BA
:402F00001A1B954206DD1A78615D197062550133013DF5E720000FB0F0BDC046AE3000000000000000300F40000400400F40000404300F4001310F4002330F4002400F4025
:402F400002410F4003420F400A430F4038803E4058045F011801B401E2805304D4208B0497086C407008DC03190861028908A102B448B502C608D802E201EC080001010104
:402F800001020202020202000300000040000000010000000200000004000000800000000400000008000000100000002000000040000000800000008000000001000000BD
:402FC00006000102070203040506070700000000000102030405060708090A0B0C0000000000014004000140080001400C00014010000140080004400801044008020440FD
:4030000008030440080404400000044000010440000204400003044000040440000102030405060708090A0B0C000000010101010101010101010101010000000304050626
:403040000708090A0B0C0E0F101112131415161718191B1C1D1E1F2021222325262728292A2B2E2F3031323334350000A0200000601F0000601F00005E1F0000782000009F
:40308000782000006A2000005E1F0000782000006A200000782000005E1F000080200000802000008020000080220000430030313233343536373839616263646566676844
:4030C000696A6B6C6D6E6F707172737475767778797A0000F8B5C046F8BC08BC9E46704775020000D5050000F8B5C046F8BC08BC9E4670474D02000008310000C800002088
:40310000C0010000A801000000000000FF1F000008000440080104400801044008010440080104400802044008020440080204400802044008020440080204400800044067
:403140000803044050505050505050505050505050000000505050505050505050505050500000000000FFFF0000FFFF0000FFFF0000FFFF0000FFFF0000FFFF0000FFFFEE
:403180000000FFFF0000FFFF0000FFFF0000FFFF0000FFFF0000FFFF01010101010101010101010101000000020202020202020202020202020000000505050505050505CC
:4031C000050505050501000064006400640064006400640064006400640064006400640064000000140014001400140014001400140014001400140014001400140000009D
:40320000140014001400140014001400140014001400140014001400140000000A000A000A000A000A000A000A000A000A000A000A000A000A000000141414141414141468
:403240001414141414000000030000000000044000366E01C05D0000180000000000E02E0100000000000000000000000000000000000000000000000000000000000000BA
:4032800000000000AC300000000000000000000000000000000000000000000000000000000000000000000000000000000000000000000000000000000000000000000032
:4032C0000000000024020020000000000000000000000000000000000000000000000000000000000000000000000000000000000000000000000000000000000000000088
:40330000000000000000000000000000000000000000000000000000000000000000000000000000000000000000000000000000000000000000000000000000000000008D
:40334000000000000000000000000000000000000000000000000000000000000000000000000000000000000000000000000000000000000000000000000000000000004D
:40338000000000000000000000000000000000000000000000000000000000000000000000000000000000000000000000000000000000000000000000000000000000000D
:4033C00000000000000000000000000000000000000000000000000000000000000000000000000000000000000000000000000000000000000000000000000000000000CD
:0200000490303A
:020000008C3042
:0200000490402A
:200000000000000000000000000000000000000000000000000000000000000000000000E0
:0200000490501A
:0C000000000204A61193110104B69DC378
:0200000490600A
:0100000001FE
:00000001FF